:020000040000FA
:0600000000308B00042813
:08000800082064000C2004280C
:100010003C308316850008008312851D4B2821186B
:100020004D280030A5000330A4000D30A30040305F
:10003000A2008312A51B4D282508031D2B28240888
:10004000031D2B282308031D2B2801302202031D2A
:1000500003182B284D28FF30A207FF30031CA307ED
:10006000FF30031CA407FF30031CA50764008312A4
:10007000851943282114851A40280130A6074D28E8
:100080000130A7074D282508240423042204031D5A
:0C00900019284E204D28A1014D28080021
:04009C0000340034F8
:02400E00443F2D
:00000001FF
