:020000040000FA
:0600000000308B00042813
:08000800082064000C2004280C
:1000100083163C30850008008312851D4B2821186B
:100020004D280030A5000330A4000D30A30040305F
:10003000A2008312A51B4D282508031D2B28240888
:10004000031D2B282308031D2B2801302202031D2A
:1000500003182B284D28FF30A207FF30031CA307ED
:10006000FF30031CA407FF30031CA50764008312A4
:10007000851943282114851A40280130A6074D28E8
:100080000130A7074D282508240423042204031D5A
:1000900019284E204D28A1014D2808005F20831209
:1000A0005328640058200130A802031D512808007D
:1000B00083120510862083120514862008008312FF
:1000C000A801A901A90A2708031985286B2803108C
:1000D000A70D0310A90D270826020318672803108F
:1000E000A70C0310A90C822827082602031C7E28CF
:1000F0002708A6022908A0002008A8040310A90CBC
:100100000310A70C2908031D742808004130AB0018
:10011000EE30AA006400AA0B8A28AB0B8A280000E4
:020120000034A9
:040122000034003471
:02400E00443F2D
:00000001FF
